:1000000020C0FECFFDCFFCCFFBCFFACFF9CFF8CF8A
:10001000F7CF8BC0F5CF44C0F3CFF2CFF1CFF0CF05
:10002000EFCFEECFEDCF039F250D9949411F010979
:10003000FDFF029E240C9848401E0008FDFE0100B2
:100040000000F894EE27ECBBF1E0FBBFEBBFE5BF8F
:10005000F8E1F1BDE1BD8DE0A2E0BB27ED938A950B
:10006000E9F780E094E0A0E6ED930197E9F7E0E49A
:10007000F0E085919591009761F0A591B59105907B
:100080001590BF01F00105900D920197E1F7FB017A
:10009000F0CFEFE5EDBFE4E0EEBFC0E6D1E0F6C1A2
:1000A000AA93EA93FA93EFB7EA939BD71BB10CB1EB
:1000B000E12FEC71D1F4E0916B017BD30083A0912F
:1000C0006B01AF5FA0936B01A83019F4E0E0E093FF
:1000D0006B01A0916D01AF5FA0936D01A83029F471
:1000E000E0E0E0936D01689420F885D7E991EFBFD7
:1000F000F991E991A99118951A93E0916C0159D35E
:100100001081A0916C01AF5FA0936C01A83019F42D
:10011000E0E0E0936C01F894E0916D01E150E09330
:100120006D017894E12F199108950A921A92FA922A
:100130006A937A938A939A93AA93BA93EA93FA93D7
:10014000EFB7EA93F20131962F013197E0E0E2BF79
:1001500034D3E415F50529F5E1E0EB1529F4C19A4E
:10016000E6E0EA936ED018C0E2E0EB1531F4C09AF5
:10017000C19AE7E0EA9365D00FC022D319F4C09A80
:100180009FD00AC0E4E0EB1519F4979A82D004C01E
:10019000979AC09A7ED044D1442455249798C09809
:1001A000C198E991EFBFF991E991B991A99199911C
:1001B000899179916991F99019900990189503D3D3
:1001C000089504D308951A93E981FA81E070EF2F1E
:1001D000F0E01E2FE12F188104C01A931981E12F3E
:1001E000188123960895FDD69398929A9498F1D207
:1001F000F3D234F4F5D2AA81F5D20F5F1F4FF8CFB6
:10020000E8D2EAD234F4ECD2AB81ECD20F5F1F4FCC
:10021000F8CFDFD2E1D234F4E3D2AC81E3D20F5F86
:100220001F4FF8CF939AE4D625960895E881E064AD
:10023000E7B9369A349BFECF349AE4B1F5B12196F2
:1002400008952897CAD6EE85EA93F0DFE1D2E2D28C
:10025000ABE7B4E18EEE9FE31AD6EA87FB876C87A3
:100260007D8756D5DCD2C6D43E2FD4D2DDD22E2FF8
:10027000D1D2EAD25E2FCED2F7D248D54E2F30302F
:1002800009F43BE0F8D2EE5CFF4FFED200D3ABDFC7
:100290003DC02997A2D600D3BBD200936001109332
:1002A00061010050104014F43AE001C03BE0F9D283
:1002B000FCD201D305D309D30DD3E9D294DF26C0F4
:1002C0008ED60BD31E2FA12FE4E686D40E2F08D393
:1002D000BBD23E2F05D3C8D219D52E2FE02F06D37F
:1002E000F9D2C9D2F7D27FDFCEC0299776D6860160
:1002F0000050104014F43AE001C03BE0D2D2D5D215
:10030000DAD2DED2E2D2E6D2C2D26DDF6DD62F963D
:100310000895EED21030E9F4F1D239F4DED23196FC
:10032000F4D2DF01F5D2F8D213C0FBD249F4D5D212
:100330003197EBD2E0936201D0D2DF01EDD208C059
:10034000F4D231F4F6D219F4F8D2FAD2FBCF11E09C
:10035000E1CFC3D2A0E0B0E09DD4C198F4D228C0D0
:10036000C7D2103011F5CAD259F4E8EBFBE0CE1633
:10037000DF0624F4F601EC59FF4F6F01E7D214C0F9
:10038000D0D251F4E8E4F4EFEC15FD051CF4E3D20F
:10039000CE1ADF0ADBD208C0C8D231F4CAD219F4AF
:1003A000CCD2CED2FBCF11E0DCCFD8D2C198CBD209
:1003B00022D60895E1E0EB1511F4C19AD4D2E2E01F
:1003C000EB1511F4C198CFD2FBD119F4C198C098A4
:1003D000979AE4E0EB1519F4C198C09A979AE5E072
:1003E000EB1511F4C19AAFD20895E1E0EB1519F4C1
:1003F000C198C09A979AE2E0EB1511F4C19AA3D282
:10040000DFD111F4C19AAFD2E4E0EB1511F4C19839
:10041000AAD2E5E0EB1519F4C198C098979A08950F
:10042000DED5A4D29F012132E3E03E071CF00AE0B2
:1004300010E009C02D32E1E03E071CF005E010E0BD
:1004400002C002E010E092D2F397E8F098D2CA1608
:10045000DB065CF442D2E00FF11FE030A1E0FA07C6
:1004600024F43BD2E00FF11F8FD289D2AC15BD0529
:1004700054F433D2E01BF10BDF01A0D524F42DD2CC
:10048000E01BF10B81D2B2D5249608952797E8E3BB
:10049000E8BBE7E0E7BBE0E0E5BBE4BBE2BBECE9DF
:1004A000E1BB91D1E5E5E2BFE1E2EFBDE9E0EEBD00
:1004B000E0E0EDBDECBDE7BDE6BDEBBDEABDE9BDED
:1004C000E8BDE2BDE5BDE4BDE3BDE5BFE1E0E9BFF8
:1004D000E0E0EBB9E8E9EAB9E6E8E0BDE0E0E0BD7C
:1004E000E7E6E9B9E0E8E8B9E0E0E0BFE0E4E7B971
:1004F000E7E8E6B997D2A0E0B0E0B8D3F7D105D2EB
:10050000DF0106D2E1E0BE2E64D1A1E0B0E0AAD3C3
:100510006F017894F3D1A9F454DEE6B3E873E832BE
:1005200021F40BD20DD246DFF8CFB394E6E0EB1501
:1005300011F4E1E0BE2EE1E3F0E0A6D101D23FDE0E
:1005400092C0EFD1A1F43DDEE6B3E873E03321F4CD
:10055000F4D1F6D14ADFF8CFBA94BB2011F4E5E02C
:10056000BE2EE1E3F0E090D1EBD129DE7CC0DDD1FD
:1005700079F427DEDED119F4E0D1E2D1FBCF20D12E
:1005800009F4C7DEE5E0EB1509F4EADE18DE6BC01E
:10059000A0916D01A13008F466C0AEDDEC83E436B5
:1005A00031F414D1B5D1EFEFF0E0EED15CC0E63913
:1005B00031F4E09162019AD1E7D105D154C0EE3611
:1005C000A1F404D169D1E05FF84DE0936001F093AC
:1005D0006101E6E0EA932ADEEA83FB83E7E0EA933F
:1005E00025DEE883F983EFD03EC0E33709F5EED08E
:1005F000CED1D9D1CCD1DAD1DCD1D5D1DAD1D6D1C5
:10060000E2D1D1D1E5D1DFD1D1D1E2D166D1EA9326
:10061000CAD0DED1D601A854B44F9DD1FED2EA9300
:10062000C2D0EEE3F0E0E491EA93BDD0CCD01BC0A1
:10063000E837C9F4CBD08FD1D0D1E8D15DDD56D128
:1006400064D1E0936201A0E0B0E024D355DD0E2F29
:100650001127D80180D1BBD2E85BFB406F017ED16E
:100660004BDDBE2EB0D056CFFFCFE991F991309738
:100670001AF4E095F095319608952497B1D19AD463
:1006800011F4B3D126C0ACD1B5D14FD4E883F983EE
:100690006A837B83B4D18ED411F4A7D11AC0A88108
:1006A000B9818A819B818ED424F4A9D1C9D252D236
:1006B00003C0A5D1C5D254D2E883F9836A837B8372
:1006C0009ED1AC81BD818E819F81E1D393D1BDD27A
:1006D00089D32C9608951A93A5D1E03019F4E0E05F
:1006E000188115C0E981FA81309769F0E5E58CD170
:1006F00010E0A981BA81ED91A983BA8385D11F5FEA
:100700001830B8F302C0ECEC7FD1E1E018812396F9
:10071000089565D4EC81FD8160D1DDDFE03011F416
:10072000E0E017C0EEEB70D110E02EE631E03F9331
:100730002F932F5F3F4FBAD1AF91BF91EC931F5FC3
:100740001930A8F3EEE6F1E048D1E9E0EA93BDD133
:1007500031D24CD42696089536D1BDDFE03019F45D
:10076000E1EFF8ED1AC0E4E44FD1E6E2F2E035D172
:100770004DD129D1CEDFE03019F4E1EFF8ED0DC015
:1007800051D1F0916F01E0E0DF01E0916E01AED058
:10079000EA2BFB2BA5E0B0E01AD2229608955F9BCE
:1007A000FECFECB108955D9BFECFE881ECB92196B8
:1007B0000895F0E0ED59FE4F0895E6E9F0E0089560
:1007C000E3E0EB150895E5E0E3BF0895E0E0E3BF63
:1007D000089500E010E008950830E0E01E07089555
:1007E000F8010895B0E0D2D1E170F2D3A2B3A2F93A
:1007F000A2BB80E991E00197F1F7949A80E991E03A
:100800000197F1F7949880E991E00197F1F7089545
:100810008F010895E5DF66277727B1D20895F8DFC5
:10082000D801E8EEF3E008950BD2E0E0F0E06AE7EB
:1008300074E406D222DFDF01CB01E0E0F0E068ECF7
:1008400072E473D363D20895FBD1E0E0F0E068EC8A
:1008500072E4F6D112DFDF01CB01E0E0F0E060E20C
:1008600071E463D353D20895EBD1E0E0F0E060E2AD
:1008700071E4E6D102CFE32FF0E0EA5DFF4FE491AF
:10088000EA93E22FF0E00895E491EA930895E52FCA
:10089000F0E0EA5DFF4FF8CFE0E0F0E0FA93EA9392
:1008A0005BCF1A930A93E1DEBACFB7D12E2F98DF30
:1008B0007CD165D2B9CF5E2F93DF77D160D2C4CF20
:1008C0004E2F8EDF72D15BD2CFCFDE011A961ED2B1
:1008D000EC93D1CFEA5DFF4FD7CFE8B5F9B50895D6
:1008E000E12FFF27662777274AD20895F0E0089581
:1008F00078D310E0C19AC09A979A0895E6B3F6DFCC
:10090000E873E832A0E0FA070895F9BDE8BDE5CF45
:10091000E4DFE09362010895D3DC4FDFFA93EA93BA
:1009200075C0E033A0E0FA070895E831A0E0FA07C7
:100930000895E6B3E873E8310895E0E3F0E0A4CF6A
:10094000EA93EA9350CCC09897980895CEDC35DFAF
:10095000FA93EA935BC0E4E6F0E00895F601A1E0C3
:10096000B0E090D10895C09A97980895E091600101
:10097000F0916101EC19FD09FA93EA9376CEA0910A
:100980006001B09161010895F9BDE8BD0895EAE004
:10099000F0E0FA93EA933AD0E0916001F0916101BE
:1009A000FA93EA9308950FDCEA93FDCE16DCEA93FE
:1009B000FACEEAE0F0E0FA93EA9328D0EA81FB81EC
:1009C000FA93EA930895E881F981FA93EA930895F6
:1009D000EAE0F0E0FA93EA9319C0FA93EA930895F3
:1009E000EC81FD816E817F810895E0E0F0E060E0C0
:1009F00070E00895A885B9858A859B850895E8816A
:100A0000F9816A817B810895EA9355C0E991F99152
:100A1000309639F080EA9FE00197F1F7A895319779
:100A2000C9F70895EE2795988D9A80E897E0019789
:100A3000F1F78D988BE48A95F1F7859B089580E313
:100A400091E00197F1F7859BE39588E196E00197A6
:100A5000F1F708958D9A8BE08A95F1F78D988BE3E5
:100A60008A95F1F7889485990894E79580E491E058
:100A70000197F1F70895E8948D9A8BE08A95F1F744
:100A800070FD8D9885E48A95F1F7859903C070FF14
:100A900003C0089570FF08958CE291E00197F1F78B
:100AA0008D988BE18A95F1F76894089568E0D2DF1C
:100AB0006A95E9F7089568E07991EE27DCDF26F47E
:100AC00077956A95D9F7E3950895EE27888188236D
:100AD00081F068E1A981BA8198E0FD917F2F7E279E
:100AE000779508F4E627E795F6959A95B9F78A95EC
:100AF00099F7239608957B816A81F981E88177FBD4
:100B0000770F67FD7160972F9E5781F078F09831CD
:100B100090F4AA27BB27882708948795B795A795AF
:100B20009A95D1F7EA23FB23682305C0E894772739
:100B3000EE27FF2766276F77769508F4606877F9C8
:100B4000A991B99189919991EA17FB0768077907EB
:100B500097FB0895D0DF09F40895F6F79FEB05C0E1
:100B6000CADF09F40895F6F39FE3AA27BB2780E8BC
:100B700040C1E095F09531960895E095F095609527
:100B80007095EF5FFF4F6F4F7F4F0895EE230E2E4E
:100B9000FD0121F0F595E7950A94E1F70895FE2F00
:100BA000FF0FFF0B6F2F7F2F08956F2F660F660BC0
:100BB000762F0895EE23E1E009F0EE270895FA9FDD
:100BC000F02DEB9FF00DEA9FE02DF10D08952AD056
:100BD000F6DF0EF4CEDF0895002498E0AA0F001C83
:100BE0000E1A10F40E0E01C0A1609A95B9F7EA2F03
:100BF000A02D08950024112490E1AA0FBB1F001C12
:100C0000111C0E1A1F0A18F40E0E1F1E01C0A1603F
:100C10009A9599F7FD01D001089504D0EBDF0EF409
:100C2000A8DF0895E894F7FF02C0A3DF6894B7FF38
:100C300006C0A095B095119600F8039400FA0895A7
:100C40007A936A93FA93EA930895182E862F612D6A
:100C5000192E972F712D1B2EBF2FF12D1A2EAE2F6F
:100C6000E12D0895119602D0FE2F1197E199FECF44
:100C7000FF93FFB7F894AEBBBFBBE09AEDB3FFBFE5
:100C8000FF91089507D01196EF93EF2F03D0EF91C6
:100C900011970895E199FECF9FB7F894AEBBBFBB03
:100CA000E09A8DB3E81719F0EDBBE29AE19A9FBF85
:100CB0000895552342F4503811F4E0FF04C03196F2
:100CC000691F791F6BF050E8572711F45F93CDC06F
:100CD0005F3F31F0660F000C57956795752F0895AB
:100CE0005F9300200AF0CDC0C6C050E8192E15222F
:100CF000880F991F9527550F879550E8072E0522D5
:100D0000660F771F7527550F67950895689401C082
:100D1000E8945F93F2DF703818F07F3F08F4A5C0C5
:100D200056E1571BAAF4519558300EF4593030F063
:100D3000EFEFFFEF6FEF7FE777F91AC077275523C3
:100D4000B9F0EE0FFF1F661F771F5A95D1F710C03D
:100D50007727583028F0EF2FF62F672F5850F9CF0C
:100D6000552331F076956795F795E7955A95D1F724
:100D700000200AF402DF5F910895689401C0E894AE
:100D8000309760407040B1F0002426F0772312F4D1
:100D90000094F3DE172E7EE1112032F07A95EE0FEB
:100DA000FF1F661F111CF9CFEF2FF62F612D5F93E8
:100DB0008ADF5F9108954F93AF01FD01DA01AB0126
:100DC000BC01CA01402D012C142E4F910895EA0F49
:100DD000FB1F681F0895E095F0956095EF5FFF4F4A
:100DE0006F4F08955F9381DF903871F150E81526B9
:100DF00004C05F937ADF903839F1703821F1572FB2
:100E0000591B13F112F4D7DFFACF583118F0AA2783
:100E1000BB278827583028F0AB2FB82F8827585089
:100E2000F9CF552329F08695B795A7955A95D9F707
:100E3000502D512562F0CBDF38F46795F795E79593
:100E4000739513F41EC0B7DF3EDF5F910895EA1B70
:100E5000FB0B680B51F010F40094BDDF6623A2F386
:100E6000EE0FFF1F661F7A95CBF7EE27FF27662749
:100E700077275F910895EFEFFFEF6FE77FEF5F91C7
:100E80000895EFEFFFEF6FE77FE75F9108955F93BE
:100E90002CDF703851F3903841F301240894791F06
:100EA00023F41CF300203AF3ECCF0F921F932F93FF
:100EB0003F934F93112722279927689FA0018F9F67
:100EC000302D410D591F6B9F300D411D591F8E9FB5
:100ED00027D0BF9F25D06A9F23D0BE9F1DD0AF9F34
:100EE0001BD0AE9F110D291F391F491F591FE32F1A
:100EF000F42F652F522F4F913F912F911F910F90FB
:100F000066232AF0550FEE1FFF1F661F02C0739560
:100F10004BF2CFDE5F910895100D211D391F02C0E5
:100F2000200D311D491F591F08955F93DEDE703873
:100F300021F411200AF49FCFA4CF903809F495CF63
:100F400001240894970B1BF4D4F30020F3CF792FDE
:100F50001F932F933F934F93112411272227332759
:100F60004427552790E2AE17BF078607410730F0A8
:100F7000AE1BBF0B860B410B089401C08894551F14
:100F8000221F331F111CAA1FBB1F881F441F9A95C5
:100F900051F7F901612D4F913F912F911F916623D8
:100FA00032F0550FEE1FFF1F661F7A9543F281DE68
:100FB0005F910895309760407040089500240A16AC
:100FC0000B06089500240A160B0608060906089564
:100FD000E8940024E011689408955A934A933A9350
:100FE0002A931A930A9308955D814C813B812A814B
:0C0FF00019810881089509911991089554
:00000001FF
