:1000000012C053C089C02AC029C028C027C026C03A
:1000100025C024C023C0B7C021C020C01FC01EC03F
:100020001DC01CC01BC011241FBECFE5D4E0DEBF25
:10003000CDBF10E0A0E6B0E0E4EDF6E002C0059030
:100040000D92A636B107D9F720E0A6E6B0E001C0D0
:100050001D92AA36B207E1F7C3D23AC3D1CFDDD1A0
:10006000B0D0CAD1ADD1C6D15BD280EC8BBF8FE00E
:1000700085BF1092670010926600789408956AD246
:100080002FE788E391E0215080409040E1F700C0E5
:10009000000060C267D22FE788E391E021508040E2
:1000A0009040E1F700C000005DC21F920F920FB6B2
:1000B0000F9211242F933F934F935F936F937F93EE
:1000C0008F939F93AF93BF93EF93FF9384D2892B2A
:1000D00091F0D5DF892B79F476D269D2AED10AD2EC
:1000E000D4D02FEF89E698E1215080409040E1F78D
:1000F00000C00000F4CFFF91EF91BF91AF919F91AD
:100100008F917F916F915F914F913F912F910F90C0
:100110000FBE0F901F9018951F920F920FB60F925F
:1001200011242F933F934F935F936F937F938F93FC
:100130009F93AF93BF93EF93FF934DD2892B91F091
:10014000A9DF892B79F43FD232D277D1C8D1B4D08C
:100150002FEF89E698E1215080409040E1F700C000
:100160000000F4CFFF91EF91BF91AF919F918F91DC
:100170007F916F915F914F913F912F910F900FBEA3
:100180000F901F9018951F920F920FB60F92112487
:100190008F939F938CB18D3149F08E3159F481E06A
:1001A00090E0909367008093660004C0109267000F
:1001B000109266009F918F910F900FBE0F901F902D
:1001C00018958E9A0895969A0895969808956115AF
:1001D00071058105910549F022E02A95F1F700C0EB
:1001E0006150710981099109F2CF08958F929F9210
:1001F000AF92BF92CF92DF92EF92FF920F931F9335
:10020000CF93DF938C015B01C0E0D0E06A01EE2464
:10021000D7FCE094FE2CC017D107E4F4C701B60167
:10022000D6DF812C912C8A149B0494F4CCDF87E5D3
:1002300092E00197F1F700C00000C7DF87E592E088
:100240000197F1F700C000009FEF891A990AEBCFE0
:100250002196E1CFDF91CF911F910F91FF90EF9009
:10026000DF90CF90BF90AF909F908F90089540E027
:1002700050E068E171E081E090E0B8CF40E050E00C
:1002800066E970E081E090E0B1CF40E050E06EE5DB
:1002900071E081E090E0AADF2FEF81EE94E0215041
:1002A00080409040E1F700C0000040E050E068EC82
:1002B00070E081E090E09ACF40E050E06EE571E0C0
:1002C00081E090E093DF2FEF81EE94E021508040B9
:1002D0009040E1F700C0000040E050E068EC70E0C2
:1002E00081E090E083DF2FEF8AE693E021508040A9
:1002F0009040E1F700C0000040E050E068EC70E0A2
:1003000081E090E073CF40E050E06EE571E081E085
:1003100090E06CDF2FEF81EE94E021508040904020
:10032000E1F700C0000040E050E068EC70E081E0E0
:1003300090E05CDF2FE78FEA92E021508040904010
:10034000E1F700C0000040E050E068EC70E081E0C0
:1003500090E04CDF2FE78FEA92E021508040904000
:10036000E1F700C0000040E050E068EC70E081E0A0
:1003700090E03CCF40E050E060E570E081E090E04C
:1003800035DF8FE19EE40197F1F700C0000040E007
:1003900050E060E570E081E090E028DF8FE19EE4CE
:1003A0000197F1F700C0000040E050E060E570E028
:1003B00081E090E01BCF0895089508950895089571
:1003C0008D9A10BC83E389B988E98AB986E880BD33
:1003D00008955D9BFECF8CB90895CF93DF93EC0118
:1003E0008991882311F0F5DFFBCFDF91CF9108953C
:1003F000959A08959598089587E886B980E487B915
:100400000895892B11F0389801C0389A3498369A9B
:100410003699FECF84B195B10895B89AB99ABA9A2F
:100420000895C09A0895C0980895C19A0895C198F2
:100430000895C29A0895C2980895F5DFF8DFFBCFBA
:10044000F0DF2FEF82E597E0215080409040E1F708
:1004500000C00000E8DF2FEF82E597E021508040E8
:100460009040E1F700C00000E0DF2FEF82E597E069
:10047000215080409040E1F700C00000D8DF2FEF0E
:1004800082E597E0215080409040E1F700C00000F5
:10049000D0DF2FEF82E597E0215080409040E1F7D8
:1004A00000C00000C8CFBDDFC0DFC3DF2FEF82E593
:1004B00097E0215080409040E1F700C00000B3DF9A
:1004C000B6DFB9CFAEDFB1DF2FEF82E597E0215085
:1004D00080409040E1F700C00000A5DFA8CFA1DF79
:1004E0002FEF82E597E0215080409040E1F700C077
:1004F000000099CF9ADF2FEF82E597E021508040EE
:100500009040E1F700C0000092CF93DF2FEF82E52B
:1005100097E0215080409040E1F700C000008BCF71
:10052000BB9ABC9ABD9A8C988A988B98949A929A06
:10053000939A0895C39A0895C3980895C49A089504
:10054000C4980895C59A0895C598089580B3807198
:1005500090E0089580B38695869591E08927817013
:1005600090E0089580B386958695869591E08927D9
:10057000817090E008952FEF89E698E12150804046
:100580009040E1F700C00000D5DF81E090E090935B
:100590006900809368000895D5DF2FEF85EA9EE01B
:1005A000215080409040E1F700C00000C7CF8FE1AC
:1005B0009EE40197F1F700C00000BEDF10926900D1
:1005C000109268000895BCDF8FE19EE40197F1F777
:1005D00000C00000B9CF8091680090916900089533
:1005E0003EDD2EDF44DEB2DF892B89F4F4DF892B78
:1005F00011F0E9DFDCDFBEDE56DF2FEF89E698E1A0
:10060000215080409040E1F700C00000ECCFE3DFD4
:10061000892B09F04AC0AFDF8FE19EE40197F1F723
:1006200000C000009FEF29E688E191502040804003
:10063000E1F700C000008EDF8C0194DFEC010115B2
:10064000110541F0009731F0A7DFEBDEEEDEF1DEC1
:1006500015DE2BC0ACDF012BD1F4CD2B61F432DFE2
:1006600052DE9FEF29E688E1915020408040E1F77B
:1006700000C00000F4CF3EDF08DE9FEF29E688E1EE
:10068000915020408040E1F700C00000F4CFCD2B16
:1006900061F425DF11DE9FEF29E688E191502040CB
:1006A0008040E1F700C00000F4CFA2DE80E690E0D9
:1006B00094DE9FE728E381E0915020408040E1F7FD
:1006C00000C0000097DE8FE493EC0197F1F79CCF18
:0406D000F894FFCFCC
:0606D4006162630A0000F0
:00000001FF
