:1000000012C04FC085C02AC029C028C027C026C042
:1000100025C024C023C0CEC121C020C01FC01EC027
:100020001DC01CC01BC011241FBECFE5D4E0DEBF25
:10003000CDBF10E0A0E6B0E0EEEFF6E002C0059024
:100040000D92A436B107D9F720E0A4E6B0E001C0D4
:100050001D92A636B207E1F7DAD24FC3D1CFF4D161
:100060008ED0E1D18BD1A4D172D280EC8BBF8FE046
:1000700085BF7894089585D22FE788E391E02150D9
:1000800080409040E1F700C000007BC282D22FE7A1
:1000900088E391E0215080409040E1F700C00000EB
:1000A00078C21F920F920FB60F9211242F933F9395
:1000B0004F935F936F937F938F939F93AF93BF9370
:1000C000EF93FF939FD2892B91F0D5DF892B79F4A1
:1000D00091D284D2C9D125D2B6D02FEF89E698E14A
:1000E000215080409040E1F700C00000F4CFFF9124
:1000F000EF91BF91AF919F918F917F916F915F91A0
:100100004F913F912F910F900FBE0F901F90189518
:100110001F920F920FB60F9211242F933F934F937C
:100120005F936F937F938F939F93AF93BF93EF935F
:10013000FF9368D2892B91F0A9DF892B79F45AD2E9
:100140004DD292D1E3D196D02FEF89E698E121509C
:1001500080409040E1F700C00000F4CFFF91EF91A4
:10016000BF91AF919F918F917F916F915F914F91CF
:100170003F912F910F900FBE0F901F9018958E9A60
:100180000895969A089596980895611571058105C8
:10019000910549F022E02A95F1F700C061507109FC
:1001A00081099109F2CF08958F929F92AF92BF92E9
:1001B000CF92DF92EF92FF920F931F93CF93DF9333
:1001C0008C015B01C0E0D0E06A01EE24D7FCE09432
:1001D000FE2CC017D107E4F4C701B601D6DF812C8D
:1001E000912C8A149B0494F4CCDF87E592E001976C
:1001F000F1F700C00000C7DF87E592E00197F1F753
:1002000000C000009FEF891A990AEBCF2196E1CF39
:10021000DF91CF911F910F91FF90EF90DF90CF90E2
:10022000BF90AF909F908F90089540E050E068E1BC
:1002300071E081E090E0B8CF40E050E066E970E026
:1002400081E090E0B1CF40E050E06EE571E081E008
:1002500090E0AADF2FEF81EE94E0215080409040A3
:10026000E1F700C0000040E050E068EC70E081E0A1
:1002700090E09ACF40E050E06EE571E081E090E0E0
:1002800093DF2FEF81EE94E0215080409040E1F722
:1002900000C0000040E050E068EC70E081E090E0D9
:1002A00083DF2FEF8AE693E0215080409040E1F712
:1002B00000C0000040E050E068EC70E081E090E0B9
:1002C00073CF40E050E06EE571E081E090E06CDFDC
:1002D0002FEF81EE94E0215080409040E1F700C084
:1002E000000040E050E068EC70E081E090E05CDF0E
:1002F0002FE78FEA92E0215080409040E1F700C064
:10030000000040E050E068EC70E081E090E04CDFFD
:100310002FE78FEA92E0215080409040E1F700C043
:10032000000040E050E068EC70E081E090E03CCFFD
:1003300040E050E060E570E081E090E035DF8FE183
:100340009EE40197F1F700C0000040E050E060E556
:1003500070E081E090E028DF8FE19EE40197F1F703
:1003600000C0000040E050E060E570E081E090E017
:100370001BCF089508950895089508958D9A10BC8F
:100380008FEF89B988E98AB98EE880BD08955D9BB1
:10039000FECF8CB90895CF93DF93EC018991882328
:1003A00011F0F5DFFBCFDF91CF910895959A089575
:1003B000959808951F920F920FB60F9211242F93C4
:1003C0003F934F935F936F937F938F939F93AF93DD
:1003D000BF93EF93FF938CB18C31A1F4E7DF2FEF44
:1003E00087EE93E0215080409040E1F700C000008C
:1003F000DFDF2FEF84E39CE0215080409040E1F765
:1004000000C00000FF91EF91BF91AF919F918F913C
:100410007F916F915F914F913F912F910F900FBE00
:100420000F901F90189587E886B980E487B90895E2
:10043000892B11F0389801C0389A3498369A369939
:10044000FECF84B195B10895B89AB99ABA9A089531
:10045000C09A0895C0980895C19A0895C1980895C2
:10046000C29A0895C2980895F5DFF8DFFBCFF0DF58
:100470002FEF82E597E0215080409040E1F700C0E7
:100480000000E8DF2FEF82E597E0215080409040A8
:10049000E1F700C00000E0DF2FEF82E597E0215098
:1004A00080409040E1F700C00000D8DF2FEF82E5E8
:1004B00097E0215080409040E1F700C00000D0DF7D
:1004C0002FEF82E597E0215080409040E1F700C097
:1004D0000000C8CFBDDFC0DFC3DF2FEF82E597E0AC
:1004E000215080409040E1F700C00000B3DFB6DF4C
:1004F000B9CFAEDFB1DF2FEF82E597E0215080402A
:100500009040E1F700C00000A5DFA8CFA1DF2FEFEA
:1005100082E597E0215080409040E1F700C0000064
:1005200099CF9ADF2FEF82E597E0215080409040ED
:10053000E1F700C0000092CF93DF2FEF82E597E054
:10054000215080409040E1F700C000008BCFBB9A63
:10055000BC9ABD9A8C988A988B98949A929A939AFE
:100560000895C39A0895C3980895C49A0895C498A5
:100570000895C59A0895C598089580B3807190E054
:10058000089580B38695869591E08927817090E0E3
:10059000089580B386958695869591E08927817028
:1005A00090E008952FEF89E698E121508040904037
:1005B000E1F700C00000D5DF81E090E09093650096
:1005C000809364000895D5DF2FEF85EA9EE02150E7
:1005D00080409040E1F700C00000C7CF8FE19EE46B
:1005E0000197F1F700C00000BEDF10926500109285
:1005F00064000895BCDF8FE19EE40197F1F700C02D
:100600000000B9CF8091640090916500089527DDC6
:100610002EDF0BDEB2DF892B89F4F4DF892B11F09A
:10062000E9DFDCDF85DE56DF2FEF89E698E1215038
:1006300080409040E1F700C00000ECCFE3DF892B61
:1006400009F044C0AFDF2FEF89E698E121508040E8
:100650009040E1F700C0000094DF8C019ADFEC01CC
:100660000115110541F0009731F0ADDFF1DEF4DE48
:10067000F7DEE2DD2BC0B2DF012BD1F4CD2B61F42C
:1006800038DF1FDE2FEF89E698E12150804090404F
:10069000E1F700C00000F4CF44DFD5DD2FEF89E69D
:1006A00098E1215080409040E1F700C00000F4CF75
:1006B000CD2B61F42BDFDEDD2FEF89E698E12150B1
:1006C00080409040E1F700C00000F4CF6FDE42E0D0
:1006D00050E060E070E080E690E05DDE2FE788E3C8
:1006E00091E0215080409040E1F700C0000060DEC2
:0E06F0008FE493EC0197F1F79ECFF894FFCFC3
:0406FE00610A00008D
:00000001FF
