:1000000012C02AC029C028C027C026C025C0F2C1FE
:1000100023C022C021C020C01FC01EC01DC01CC0E4
:100020001BC01AC019C011241FBECFEDCDBF10E0F8
:10003000A0E6B0E0E0E6F6E002C005900D92A8363A
:10004000B107D9F710E0A8E6B0E001C01D92A037D3
:10005000B107E1F73CD202C3D3CF8D9ABA9ABC9ACA
:10006000BB9ABD9ABE9A8C9A8E9A08958A988B985C
:10007000B898B998929A939AC09AC19A0895949A06
:10008000089594980895969A089596980895C59A13
:100090000895C5980895C69A0895C698089592B986
:1000A00089B988E98AB98EE083B908955D9BFECF4E
:1000B0008CB90895CF93DF93EC018991882311F0D7
:1000C000F5DFFBCFDF91CF91089581EA80BF8FBD2F
:1000D00016BE1CBE1BBC1ABC19BC18BC83E083BF77
:1000E0008EBD0895D4DF2FE789EA93E02150804048
:1000F0009040E1F700C00000CCDF2FE789EA93E0F1
:10010000215080409040E1F700C00000C4DF2FE79D
:1001100089EA93E0215080409040E1F700C0000060
:10012000BCDF2FE789EA93E0215080409040E1F75F
:1001300000C00000A8DF2FE789EA93E0215080404B
:100140009040E1F700C00000A0DF2FE789EA93E0CC
:10015000215080409040E1F700C0000090DF2FE781
:1001600089EA93E0215080409040E1F700C0000010
:1001700088DF2FE789EA93E0215080409040E1F743
:1001800000C0000084DF87DF7EDF79DF2FE789EAA8
:1001900093E0215080409040E1F700C0000079DFFB
:1001A0007CDF73DF6ECF80B3847090E0089580B3FE
:1001B0008695869591E08927817090E0089580B3B7
:1001C000887090E0089580B386958695869591E035
:1001D0008927817090E0089586B3817090E008953A
:1001E00086B38095817090E0089586B3827090E028
:1001F000089586B3869591E08927817090E00895EF
:1002000020916E0030916F00232B01F520916C003E
:1002100030916D00232BD1F421E030E030936F005A
:1002200020936E0020E030E0281739077CF44AB5AF
:100230005BB54F5F5F4F5BBD4ABDEFE3FFE13197B9
:10024000F1F700C000002F5F3F4FEECF089520E090
:1002500030E0281739077CF44AB55BB541505109A5
:100260005BBD4ABDEFE3FFE13197F1F700C000004D
:100270002F5F3F4FEECF1BBC1ABC10926F00109245
:100280006E00089520916E0030916F00232B01F5D0
:1002900020916C0030916D00232BD1F421E030E0EF
:1002A00030936D0020936C0020E030E02817390770
:1002B0007CF448B559B54F5F5F4F59BD48BDEFE37A
:1002C000FFE13197F1F700C000002F5F3F4FEECF05
:1002D000089520E030E0281739077CF448B559B577
:1002E0004150510959BD48BDEFE3FFE13197F1F7A6
:1002F00000C000002F5F3F4FEECF19BC18BC10921A
:100300006D0010926C00089520916A0030916B008E
:10031000232BE9F42091680030916900232BB9F474
:1003200021E030E030936B0020936A0020E030E061
:100330002817390764F446B74F5F46BFEFE3FFE184
:100340003197F1F700C000002F5F3F4FF1CF0895C4
:1003500020E030E02817390764F446B7415046BF23
:10036000EFE3FFE13197F1F700C000002F5F3F4F4F
:10037000F1CF16BE10926B0010926A000895209182
:100380006A0030916B00232BE9F4209168003091D2
:100390006900232BB9F421E030E030936900209309
:1003A000680020E030E02817390764F44CB74F5F4D
:1003B0004CBFEFE3FFE13197F1F700C000002F5F82
:1003C0003F4FF1CF089520E030E02817390764F45B
:1003D0004CB741504CBFEFE3FFE13197F1F700C05C
:1003E00000002F5F3F4FF1CF1CBE109269001092AA
:1003F000680008951F920F920FB60F9211242F9349
:100400003F934F935F936F937F938F939F93AF939C
:10041000BF93EF93FF938CB1823F39F43CDE809120
:10042000620090916300ECDE3EC0833F39F435DE1C
:1004300080916200909163000ADF35C0843F39F4F7
:1004400026DE80916200909163001CDF2CC0853F06
:1004500039F41FDE80916200909163003ADF23C07F
:10046000883F39F410DE80916000909161004CDF8C
:100470001AC0893F39F409DE8091600090916100D3
:1004800067DF11C08A3F39F4FADD809160009091F6
:10049000610075DF08C08B3F49F4F3DD8091600097
:1004A0009091610090DF84E690E004DEFF91EF918F
:1004B000BF91AF919F918F917F916F915F914F917C
:1004C0003F912F910F900FBE0F901F901895CF93D3
:1004D000DF93CDB7DD27C850CDBFBFDD03DEC6DD5E
:1004E00083E390E0DCDDF1DD789418861F821E82C4
:1004F0001D821C821B821A82198201E010E057DEE5
:10050000892BC9F02FEF84E39CE02150804090407C
:10051000E1F700C000004BDE892BD9F08D819E8170
:10052000892BB9F4B8DD809162009091630068DE98
:1005300018870F830EC0829B0CC08F819885892BF2
:1005400041F0ABDD809162009091630080DE1886FF
:100550001F8239DE892BC9F02FEF84E39CE0215004
:1005600080409040E1F700C000002DDE892BD9F0DB
:100570008F819885892BB9F48ADD809162009091F2
:10058000630080DE1E830D830EC0839B0CC08D81B3
:100590009E81892B41F07DDD809162009091630006
:1005A00098DE1E821D821CDE892BC9F02FEF84E3AA
:1005B0009CE0215080409040E1F700C0000010DE38
:1005C000892BD9F089819A81892BB9F45CDD8091DE
:1005D00060009091610098DE1C830B830EC0B09B7D
:1005E0000CC08B819C81892B41F04FDD8091600094
:1005F00090916100ADDE1C821B82FBDD892BC9F06E
:100600002FEF84E39CE0215080409040E1F700C050
:100610000000EFDD892BD9F08B819C81892BB9F407
:100620002EDD8091600090916100A9DE1A8309831C
:100630000EC0B19B0CC089819A81892B41F021DDCC
:100640008091600090916100BEDE1A8219828FEC69
:1006500097E00197F1F700C0000051CFF894FFCF69
:08066000BE00BE004F4B0A0072
:00000001FF
