:100000000C944F000C946C000C946C000C946C00DD
:100010000C946C000C946C000C946C000C946C00B0
:100020000C94A4030C946C000C946C000C946C0065
:100030000C946C000C94E90A0C946C000C946C0009
:100040000C946C000C946C000C946C000C942407C1
:100050000C946E000C9453070C94880A0C94480777
:100060000C94AC0A0C946C000C946C000C946C0016
:100070003E01420146014A014E01520194019401A0
:1000800094019401560159015C0194019401940179
:1000900094019401940194016001630166011124AB
:1000A0001FBECFEFD4E0DEBFCDBF13E0A0E0B1E0D4
:1000B000EAE4F7E102C005900D92A832B107D9F742
:1000C00023E0A8E2B3E001C01D92A13FB207E1F72F
:1000D0000E940F0B0C94A30B0C9400001F920F9224
:1000E0000FB60F9211242F933F934F935F936F930B
:1000F0007F938F939F93AF93BF93EF93FF93CF9390
:10010000DF9300D0CDB7DEB780912803882319F0A4
:100110000E94780970C01A82CE0101960E947E0A60
:100120008981833F51F1B8F4843C09F43FC060F405
:10013000823CA9F1833C09F048C0CE0102960E949E
:10014000820A4A8165E21BC0853CB9F1823FE9F52C
:1001500040E060E214C0883FC9F038F4843F99F071
:10016000853F99F540E064E20AC08A3FA9F088F033
:100170008B3F59F540E064E226C040E061E281E156
:100180000E946C062DC040E063E2F9CF40E060E2DF
:100190001AC040E061E217C040E063E214C0CE0143
:1001A00002960E94820A4A8162E2E9CFCE0102965B
:1001B0000E94820A4A8162E206C0CE0102960E9433
:1001C000820A4A8165E282E1DBCF61E080E00E9441
:1001D0004E0A81E00E947C0A60E081E00E944E0AA3
:1001E00061E080E00E944E0A80E00E947C0A60E0AC
:1001F00081E00E944E0A0F900F90DF91CF91FF9106
:10020000EF91BF91AF919F918F917F916F915F918E
:100210004F913F912F910F900FBE0F901F90189507
:10022000683E23E0720790F0640F751F6D3E7340C7
:1002300068F4FC014115510531F0108211824150E2
:1002400051093296F7CF80E090E0089581E090E088
:100250000895CF93DF93EC014130510509F064C05C
:100260006150710921303105B9F56731710508F028
:100270005BC0FB01E85CFF4F0C94790B89810E9405
:10028000E1014FC089810E94EC014BC089810E942D
:10029000F70147C089810E94020243C089810E9400
:1002A00099013FC089810E94A4013BC040E069815F
:1002B00005C0498162E202C0498165E281E109C06D
:1002C00040E0698105C0498162E202C0498165E27E
:1002D00082E10E946C0625C063307105C1F038F4DC
:1002E0006130710571F080F40E940D0218C0653014
:1002F000710599F078F066347105B1F4188284E6DE
:100300000FC00E9411020BC00E94150208C00E947B
:10031000190205C00E94AF0102C00E94B3011882F9
:10032000898380E090E002C081E090E0DF91CF918E
:100330000895CF93C82F682F85E090E00E94960B18
:10034000C0933C03CF910895CF93C82F682F82E0CC
:1003500090E00E94960BC0933903CF91089585E0F9
:1003600090E00C948E0B82E090E00C948E0BB89A87
:10037000B99AA19AA29AA39AA49A0E94AF018093D3
:100380003C030E94B3018093390390E693BF83B787
:10039000836083BF11BE97BD87B5846087BD12BCE3
:1003A0008BE080938A0088E080937D001092890022
:1003B000109288008AE698E19093850080938400EB
:1003C0000895CF93C82F682F84E090E00E94960B89
:1003D000C0933B03CF910895CF93C82F682F83E03C
:1003E00090E00E94960BC0933A03CF910895CF936B
:1003F000C82F682F81E090E00E94960BC0933803CD
:10040000CF910895CF93C82F682F80E090E00E948D
:10041000960BC0933703CF91089584E090E00C943D
:100420008E0B83E090E00C948E0B81E090E00C94B6
:100430008E0B80E090E00C948E0BCF93809136036E
:10044000811119C080913503811115C0A99A81E0ED
:10045000809336030E942504C0E080913C03C817B6
:1004600050F482B58F5F82BD80913B0390E00E9483
:10047000F204CF5FF2CFCF910895CF9380913503EF
:1004800081111AC0C0E080913C03C81750F482B5B6
:10049000815082BD80913A0390E00E94F204CF5FC8
:1004A000F2CF12BC109236038AE090E00E94F20470
:1004B000A998CF910C942704CF910895CF93809160
:1004C0003603811119C080913503811115C0AA9A94
:1004D00081E0809335030E942104C0E080913C03B9
:1004E000C81750F482B58F5F82BD80913B0390E0C6
:1004F0000E94F204CF5FF2CFCF910895CF93809105
:10050000360381111AC0C0E080913C03C81750F433
:1005100082B5815082BD80913A0390E00E94F2043E
:10052000CF5FF2CF12BC109235038AE090E00E94B8
:10053000F204AA98CF910C942304CF910895CF93FD
:1005400080913403811119C080913303811115C04A
:10055000AB9A81E0809334030E941D04C0E0809137
:100560003903C81750F481B78F5F81BF809138037A
:1005700090E00E94F204CF5FF2CFCF910895CF9325
:100580008091330381111AC0C0E080913903C817EC
:1005900050F481B7815081BF8091370390E00E9471
:1005A000F204CF5FF2CF11BE109234038AE090E0E4
:1005B0000E94F204AB98CF910C941F04CF91089540
:1005C000CF9380913403811119C08091330381113D
:1005D00015C0AC9A81E0809333030E941904C0E0F7
:1005E00080913903C81750F481B78F5F81BF809124
:1005F000380390E00E94F204CF5FF2CFCF910895CC
:10060000CF938091340381111AC0C0E080913903E7
:10061000C81750F481B7815081BF8091370390E0B3
:100620000E94F204CF5FF2CF11BE109233038AE032
:1006300090E00E94F204AC98CF910C941B04CF91EF
:10064000089520912B0330912C03232BA9F48823A8
:1006500099F091E09093320324E1829FC00111242C
:100660009093300380932F030E941D0281E090E05D
:1006700090932C0380932B03089520912B033091AA
:100680002C03232BA1F4882391F01092320324E150
:10069000829FC00111249093300380932F030E9406
:1006A0005E0281E090E090932C0380932B030895E9
:1006B0002091290330912A03232BA9F4882399F050
:1006C00091E09093310324E1829FC0011124909323
:1006D0002E0380932D030E949F0281E090E090936F
:1006E0002A038093290308952091290330912A0336
:1006F000232BA1F4882391F01092310324E1829FEF
:10070000C001112490932E0380932D030E94E002D8
:1007100081E090E090932A038093290308958091CB
:10072000360381110FC08091350381110BC0809178
:100730003403811107C09091330381E0911103C00C
:1007400080E0089581E008951F920F920FB60F92F6
:1007500011242F933F934F935F936F937F938F93C6
:100760009F93AF93BF93EF93FF9380912B0390914F
:100770002C03892BF9F080912F0390913003892B62
:1007800051F080912F0390913003019790933003A3
:1007900080932F030FC010922C0310922B03809193
:1007A000320340E0882311F061E201C064E281E19C
:1007B0000E946C068091290390912A03892BF9F0FD
:1007C00080912D0390912E03892B51F080912D0360
:1007D00090912E03019790932E0380932D030FC0C9
:1007E00010922A03109229038091310340E088235C
:1007F00011F061E201C064E282E10E946C06109295
:10080000890010928800FF91EF91BF91AF919F9165
:100810008F917F916F915F914F913F912F910F90A9
:100820000FBE0F901F901895D69AD79AD49AD59A42
:100830000895DC9A0895DC980895DD9A0895DD986E
:100840000895DE9A0895DE980895DF9A0895DF9856
:100850000895DE9ADC9A2FE78AE196E021508040E5
:100860009040E1F700C00000DF9ADD9A2FE78AE1AF
:1008700096E0215080409040E1F700C00000DC98F5
:10088000DD98DE98DF980895D098D198D298D398C3
:10089000D89AD99ADA9ADB9A0895CF938091400337
:1008A00081110FC090913F0391110BC090913E03B5
:1008B000C1E0911107C090913D03911103C0C0E0C8
:1008C00001C0C1E0C89914C084EF91E00E94F20415
:1008D000C8991AC080913F03811116C02C2F40E0A7
:1008E00060E281E10E947A0681E0809340030CC0BF
:1008F000C89B0AC0882341F02C2F40E061E281E1CF
:100900000E947A0610924003C99914C084EF91E0C6
:100910000E94F204C9991CC080914003811118C043
:100920002C2F40E063E281E10E947A0681E080930F
:100930003F030EC0C99B0CC080913F03882341F048
:100940002C2F40E064E281E10E947A0610923F037E
:10095000CA9914C084EF91E00E94F204CA991CC0A5
:1009600080913D03811118C02C2F40E060E282E1AC
:100970000E947A0681E080933E030EC0CA9B0CC0A1
:1009800080913E03882341F02C2F40E061E282E118
:100990000E947A0610923E03CB9914C084EF91E036
:1009A0000E94F204CB991CC080913E03811118C0B3
:1009B0002C2F40E063E282E10E947A0681E080937E
:1009C0003D030EC0CB9B0CC080913D03882341F0BA
:1009D0002C2F40E064E282E10E947A0610923D03EF
:1009E000CF910895009741F0EFECF7E03197F1F7E0
:1009F00000C000000197F6CF0895009731F022E083
:100A00002A95F1F700C00197F8CF08950F931F932F
:100A1000CF93DF93E62FB901A8012FEF2E0F273FC9
:100A2000E8F4E0934D03892BC9F410924A03109225
:100A300049038E2F0E94A608EC010097A1F40E94A2
:100A4000300A882371F010924C0310924B0381E01E
:100A500090E0909301018093000105C0C2E0D0E0D6
:100A600002C0C3E0D0E0CE01DF91CF911F910F9182
:100A700008958091000190910101019741F4E09166
:100A80004903F0914A03309729F0099503C086E0A5
:100A900090E0089580E090E00895809100019091A9
:100AA0000101019749F40E94D408109201011092AB
:100AB000000180E090E0089586E090E00895809144
:100AC000000190910101009749F40E94E10881E042
:100AD00090E0909301018093000102C0019719F406
:100AE00080E090E0089586E090E00895CF93DF9352
:100AF00000D0CDB7DEB78091000190910101892B24
:100B000009F08DC0CE0101960E943D0A813009F0A6
:100B100089C089819A8181309105B1F0029709F0ED
:100B200081C08091460390914703FC01408140932E
:100B3000430321E030E03093420320934103E2E09D
:100B4000F1E020E030E01EC044E453E066E473E0EE
:100B500088E493E00E94EA08892B09F063C0809141
:100B6000480390914D03891711F081115BC082E019
:100B700090E00E94340A56C02F5F3F4F33962A30D0
:100B80003105B1F05081552399F05413F5CFF90197
:100B9000EE0FFF1FE20FF31FEE5FFE4F0180F281A9
:100BA000E02D64E473E00995909342038093410340
:100BB000809148038823B1F18091410390914203D1
:100BC000009701F1E0914603F091470321E030E006
:100BD000309345032093440390914303906890839E
:100BE000E0914603F091470320914403309145037F
:100BF000A9014F5F5F4F5093450340934403E20FB9
:100C0000F31F808340914403509145036091460354
:100C10007091470380914D030E94210903C086E033
:100C200090E002C080E090E00F900F90DF91CF91B4
:100C3000089580915103882329F1809151038232D4
:100C4000D9F038F4803279F08132D1F40E943D023B
:100C500017C0843271F050F0853291F480914F03C7
:100C60000E943D030DC00E941D020AC00E945E0248
:100C700007C00E947E0204C080914F030E9421039E
:100C80001092510380915003882329F180915003E1
:100C90008232D9F038F4803279F08132D1F40E9476
:100CA000BF0217C0843271F050F0853291F4809108
:100CB0004E030E9474030DC00E949F020AC00E944E
:100CC000E00207C00E94000304C080914E030E940E
:100CD0005803109250030895813129F46093510311
:100CE00040934F030895823121F460935003409361
:100CF0004E0308951F93CF93DF9300D0CDB7DEB797
:100D0000182F222341F0812F0F900F90DF91CF9168
:100D10001F910C946C064A8369830E948F034A8159
:100D20006981882381F30F900F90DF91CF911F91FC
:100D3000089583E389B986E880BD88ED8AB98A9AE7
:100D400092980895929A10925E0380915F038CB9F5
:100D5000559A089592E490935F0380936003835CB7
:100D6000809361030C94A2068AE190E00C94AA0699
:100D70008CE290E00C94AA0680915703909158035E
:100D8000019690935803809357038533924850F00F
:100D90001092520385E190E00E94AA061092580337
:100DA00010925703089580915903882361F150915F
:100DB0005B0340915C03842F90E0850F911D0597A4
:100DC00020915D0330E082179307E9F45C3259F01B
:100DD0005C3A89F05A31A9F481E04C3A09F080E09C
:100DE000809354030EC081E04C3A09F080E0809378
:100DF000530381E004C081E0463109F080E0809334
:100E0000520310925903089580915503909156030F
:100E100001968C3D2FEF920738F490935603809300
:100E2000550381E090E00895109256031092550307
:100E30008091520390E008958091540390E00895CA
:100E40008091530390E008951F920F920FB60F9276
:100E500011248F939F93EF93FF93E0915A0381E0C6
:100E60008E0F80935A039CB1F0E0E55AFC4F9083BB
:100E7000833029F410925A0381E080935903FF9143
:100E8000EF919F918F910F900FBE0F901F9018952B
:100E90001F920F920FB60F92112492980F900FBECF
:100EA0000F901F9018951F920F920FB60F9211245A
:100EB0008F93EF93FF9380915E038F5F80935E0328
:100EC000833021F4559810925E0308C0929AE09105
:100ED0005E03F0E0E15AFC4F80818CB9FF91EF9105
:100EE0008F910F900FBE0F901F901895FB012081DE
:100EF000318125303105A1F4FC01618170E0762F4C
:100F000066272281622B6F5F7F4F21E030E041E056
:100F100050E003960E942901009729F00C94820862
:100F200083E090E0089580E090E008950F931F9390
:100F3000CF93DF93FC01EB01888199810597C1F57F
:100F4000318162812481022F10E0C80101978D3721
:100F5000910570F51982188283E0808388819981D8
:100F6000019699838883220F218388819981019634
:100F70009983888370E0732B6F5F7F4F20E030E0B0
:100F8000A801CF0102960E942901009731F0DF915C
:100F9000CF911F910F910C948208000F111F88812F
:100FA0009981800F911F9983888380E090E002C02F
:100FB00083E090E0DF91CF911F910F9108950F93FF
:100FC0001F93CF93DF93FC01EB01888199810597F3
:100FD000D1F521816281038110E0102F00278481E7
:100FE000082BC80101978C37910568F51982188282
:100FF00084E0808388819981019699838883802FFA
:10100000880F81838881998101969983888370E014
:10101000722B6F5F7F4FA801CF0102960E941001D3
:10102000009731F0DF91CF911F910F910C948208BE
:10103000000F111F88819981800F911F99838883E8
:1010400080E090E002C083E090E0DF91CF911F91BB
:101050000F910895CF93DF9330E0DB0153E0B69515
:10106000A7955A95E1F767707727E1E0F0E002C0B5
:10107000EE0FFF1F4A95E2F73197EC01CA0FDB1F15
:1010800058811196A80FB91F4C91852F90E0942B91
:10109000062E02C0EE0FFF1F0A94E2F7E095F095CE
:1010A0008E239F2302C0220F331F6A95E2F7822B03
:1010B000932B88839C93DF91CF9108959B01E3E06C
:1010C00036952795EA95E1F7FC01E20FF31F808141
:1010D000518190E0952BF3E0220F331FFA95E1F751
:1010E000621B730B02C0969587956A95E2F721E023
:1010F00030E002C0220F331F4A95E2F72150310938
:10110000822308958830910530F4FC01E05EFE4FA3
:10111000808190E0089584E090E00895FC01680FDC
:10112000791F8FEF4FEFE617F70769F02191282716
:1011300030E0D901A85DBD4F8C918427D901A85D0D
:10114000BE4F4C91F0CF90E0942B0895CF92DF9258
:10115000EF92FF926A017B01F894CB01BA010E94E1
:10116000620A81E0C8168BE4D806E104F10468F451
:10117000A7019601220F331F441F551F60EA7FE726
:1011800087E190E00E94570B04C023E230E040E08A
:1011900050E0C9010E94D60A789480E090E0FF9068
:1011A000EF90DF90CF900895F89410926903109219
:1011B000680360E081E00E944E0A0E94B70A7894BA
:1011C0000895F89460E080E00E944E0A0E94CC0AE4
:1011D00078940895EF92FF920F931F93CF93DF932C
:1011E0008C01EB017A01F894809162039091630382
:1011F000049718F485E090E01CC060916203709140
:10120000630381E793E00E948E08892B99F7809110
:101210007103F801808380916203909163030397C7
:10122000F7019183808382E793E09983888380E04C
:1012300090E07894DF91CF911F910F91FF90EF9004
:101240000895CF93DF93F894C0916803D091690318
:10125000C130D10509F046C0FB013197F093670317
:10126000E0936603D0936503C09364038083809109
:10127000640390916503840F951F90936503809399
:1012800064036091640370916503CF010E948E082E
:10129000692F2091640330916503A9014F5F5F4F6F
:1012A0005093650340936403F901EF58FC4F80832A
:1012B00080916403909165039C012F5F3F4F3093B1
:1012C000650320936403FC01EF58FC4F6083D093C7
:1012D0006B03C0936A0361E080E00E944E0A80E0E5
:1012E00090E002C085E090E07894DF91CF9108957E
:1012F000CF93DF931F92CDB7DEB7CE0101960E9448
:101300007E0A80916803909169038130910539F0DC
:10131000D8F182309105D1F00397B1F137C0109226
:1013200063031092620380916203909163039C01B6
:101330002F5F3F4F30936303209362032981FC01A9
:10134000EF58FC4F208382E090E01AC08091620346
:10135000909163038038910588F4809162039091A5
:1013600063039C012F5F3F4F30936303209362031D
:101370002981FC01EF58FC4F208306C083E090E0F8
:1013800090936903809368030E94B70A80E00F90EE
:10139000DF91CF910895CF9380916A0390916B0371
:1013A000009719F0019731F033C060E081E00E94AE
:1013B0004E0A2EC08091640390916503892BD1F071
:1013C000E0916603F091670380810E947C0A80911E
:1013D0006603909167030196909367038093660379
:1013E00080916403909165030197909365038093C6
:1013F00064030EC083E090E00E94340AC82F60E0CE
:1014000081E00E944E0A10926B0310926A0301C0A1
:10141000C0E08C2FCF910895CF93DF931F92CDB76B
:10142000DEB78091680390916903009729F00297D5
:1014300041F481E090E002C080E090E00E94340A34
:1014400001C080E089830E94CC0A21E030E0309323
:1014500069032093680389810F90DF91CF910895EC
:1014600010926C0381E0089521E020936C03909327
:101470006E0380936D0381E0089520916C03222315
:1014800059F020916D0330916E03FC01318320836C
:1014900010926C0381E0089580E0089591B1986402
:1014A00091B9882319F081B1806902C081B18F762A
:1014B00081B9662329F081B1886281B9389A08958B
:1014C0000D9808959B01AC0184E0220F331F441F47
:1014D000551F8A95D1F760E072E18AE790E00E949B
:1014E000570B215020B986E88CBF60E080E00E9455
:1014F0004E0A309A3898089583B9089523B1FC01B3
:1015000020830895179BFECF23B1FC01208308950B
:101510001F920F920FB60F9211242F933F934F9368
:101520005F936F937F938F939F93AF93BF93EF934B
:10153000FF930E94CB09FF91EF91BF91AF919F91D3
:101540008F917F916F915F914F913F912F910F906C
:101550000FBE0F901F9018951F920F920FB60F920B
:10156000112438980F900FBE0F901F9018951DBC36
:101570001CBC80916F0390917003892B49F089B74F
:10158000806489BF80916F03909170039BBD8ABD79
:101590008EB585608EBD08958EB58A7F8EBD89B764
:1015A0008F7B89BF88B7806488BF08959C01A4E8B9
:1015B000BEE10E947F0B20E63AEE40E050E00E9440
:1015C000570B3093700320936F031FBC1EBC0C9409
:1015D000CC0A1F920F920FB60F9211242F933F93B4
:1015E0004F935F936F937F938F939F93AF93BF932B
:1015F000EF93FF931DBC1CBC0E940C0AFF91EF915E
:10160000BF91AF919F918F917F916F915F914F911A
:101610003F912F910F900FBE0F901F901895A0989B
:101620008E988D988C988B98A89A969A959A949A59
:10163000939A83B380958170809328030E94140449
:101640000E94B7018091280381110BC060E875E208
:1016500080E090E00E94620A60E081E00E944E0A11
:101660000EC0E12CF12C00E815E220E030E040E073
:101670006AE080E090E00E9406050E944D0580919E
:10168000280381110AC061E00E944E0A8AE20E948A
:101690007C0A60E081E00E944E0A78940E94440433
:1016A0000E9476050E9419060E944D04F9CFA1E21E
:1016B0001A2EAA1BBB1BFD010DC0AA1FBB1FEE1FCC
:1016C000FF1FA217B307E407F50720F0A21BB30B17
:1016D000E40BF50B661F771F881F991F1A9469F793
:1016E00060957095809590959B01AC01BD01CF01EF
:1016F0000895EE0FFF1F0590F491E02D0994A29F2D
:10170000B001B39FC001A39F700D811D1124911DD5
:10171000B29F700D811D1124911D0895E199FECF96
:101720009FBB8EBBE09A99278DB30895262FE19930
:10173000FECF9FBB8EBB2DBB0FB6F894E29AE19A09
:0A1740000FBE01960895F894FFCF44
:10174A00020004DF07039607067607000000000080
:10175A00000000000000000000000000000000007F
:10176A00000204040404040600C0C101C30302C247
:10177A00C60607C705C5C404CC0C0DCD0FCFCE0EC7
:10178A000ACACB0BC90908C8D81819D91BDBDA1A37
:10179A001EDEDF1FDD1D1CDC14D4D515D71716D6A7
:1017AA00D21213D311D1D010F03031F133F3F23217
:1017BA0036F6F737F53534F43CFCFD3DFF3F3EFE87
:1017CA00FA3A3BFB39F9F83828E8E929EB2B2AEAF7
:1017DA00EE2E2FEF2DEDEC2CE42425E527E7E62667
:1017EA0022E2E323E12120E0A06061A163A3A262D7
:1017FA0066A6A767A56564A46CACAD6DAF6F6EAE47
:10180A00AA6A6BAB69A9A86878B8B979BB7B7ABAB6
:10181A00BE7E7FBF7DBDBC7CB47475B577B7B67626
:10182A0072B2B373B17170B0509091519353529296
:10183A0096565797559594549C5C5D9D5F9F9E5E06
:10184A005A9A9B5B99595898884849894B8B8A4A76
:10185A004E8E8F4F8D4D4C8C4484854587474686E6
:10186A00824243834181804000C1814001C080415E
:10187A0001C0804100C1814001C0804100C1814056
:10188A0000C1814001C0804101C0804100C1814046
:10189A0000C1814001C0804100C1814001C0804136
:1018AA0001C0804100C1814001C0804100C1814026
:1018BA0000C1814001C0804100C1814001C0804116
:1018CA0001C0804100C1814000C1814001C0804106
:1018DA0001C0804100C1814001C0804100C18140F6
:1018EA0000C1814001C0804101C0804100C18140E6
:1018FA0000C1814001C0804100C1814001C08041D6
:10190A0001C0804100C1814000C1814001C08041C5
:10191A0001C0804100C1814001C0804100C18140B5
:10192A0000C1814001C0804100C1814001C08041A5
:10193A0001C0804100C1814001C0804100C1814095
:10194A0000C1814001C0804101C0804100C1814085
:10195A0000C1814001C0804100C1814001C0804175
:08196A0001C0804100C1814071
:00000001FF
